:1000000012C021C020C026C21EC01DC01CC01BC003
:100010001AC019C018C017C016C015C014C013C02C
:1000200012C011C010C011241FBECFE5D4E0DEBF46
:10003000CDBF10E0A0E6B0E001C01D92A937B10726
:10004000E1F7DFD11DC2DCCF813019F4809363006A
:100050000895109263000895982F882331F4109228
:100060006300AA9A109262000895813059F4809139
:1000700069008823A1F490936300AA9AA99A9093A7
:1000800062000895823059F480916600882339F423
:1000900081E080936300AA9AA998909362000895E2
:1000A00080917700882341F480990BC081E0809390
:1000B00077008093600005C0809B03C08F5F8093B2
:1000C000770080916800882341F481990BC081E01A
:1000D000809368008093710005C0819B03C08F5F8F
:1000E0008093680080917400882341F482990BC04A
:1000F00081E08093740080936E0005C0829B03C0F2
:100100008F5F8093740080916C00882341F4839901
:100110000BC081E080936C00809378000895839BEE
:1001200003C08F5F80936C00089580916F008823D7
:1001300071F4849911C081E080936F008093750001
:100140001092760010926A001092720005C0849B93
:1001500003C08F5F80936F0080916400882371F4E7
:10016000859911C081E0809364001092750080939E
:10017000760010926A001092720005C0859B03C041
:100180008F5F8093640080916700882371F4869963
:1001900011C081E080936700109275001092760084
:1001A00080936A001092720005C0869B03C08F5F27
:1001B0008093670080917300882371F4879911C040
:1001C00081E0809373001092750010927600109277
:1001D0006A00809372000895879B03C08F5F8093AD
:1001E0007300089580917500882321F081E0809349
:1001F000660002C01092660080917200882321F090
:1002000081E08093690008951092690008958091BB
:100210007500882319F081E080936D00809176004D
:10022000882319F082E080936D0080916A00882312
:1002300019F083E080936D0080917200882319F09B
:1002400084E080936D009091600020917100309166
:100250006E0040917800822F890F830F840F809366
:100260006B008230A0F5992319F081E0809365003E
:10027000222319F082E080936500332319F083E094
:1002800080936500442319F084E080936500909189
:10029000650080916D00891710F481E0DDDE90919A
:1002A000650080916D00981710F482E0D5DE909182
:1002B000650080916D00981751F480E0CDDE1092BA
:1002C00060001092710010926E0010927800809180
:1002D0006B00823008F482C0823061F5809160004A
:1002E000882339F080916500813019F081E0809396
:1002F000610080917100882339F08091650082301F
:1003000019F082E08093610080916E00882339F0BB
:1003100080916500833019F083E0809361008091C3
:100320007800882339F080916500843019F084E0EA
:100330008093610080916100813089F484990FC0BD
:1003400080E08ADE1092610080E395E728EC30E0DF
:10035000F9013197F1F70197D9F710926000809178
:100360006100823089F485990FC080E075DE1092BB
:10037000610080E395E728EC30E0F9013197F1F76F
:100380000197D9F71092710080916100833089F450
:1003900086990FC080E060DE1092610080E395E7EF
:1003A00028EC30E0F9013197F1F70197D9F7109275
:1003B0006E0080916100843089F487990FC080E0DD
:1003C0004BDE1092610080E395E728EC30E0F90104
:1003D0003197F1F70197D9F7109278009091650065
:1003E00080916D00981761F480E036DE1092600015
:1003F0001092710010926E001092780010926100BD
:10040000089584B38E6084BB81B311BA82B39FEF29
:1004100092BB88E085BD83E085BD93BD80E889BF40
:1004200078941092630081E08093600010927100D4
:1004300010926E0010927800109275001092760063
:1004400010926A0010927200AA982ADE6EDECADE4E
:10045000DEDEFBCF1F920F920FB60F9211248F9307
:100460009F9380916300813021F485B398E08927C0
:1004700085BB9F918F910F900FBE0F901F90189585
:04048000F894FFCF1E
:00000001FF
